:100000000C9434000C944F010C9451000C9451004A
:100010000C9451000C9451000C9451000C9451001C
:100020000C9451000C9451000C9451000C9451000C
:100030000C9451000C9451000C9451000C945100FC
:100040000C9451000C9451000C9451000C945100EC
:100050000C9451000C9451000C9451000C945100DC
:100060000C9451000C94510011241FBECFEFD8E026
:10007000DEBFCDBF11E0A0E0B1E0E6E2F5E002C0F6
:1000800005900D92A83BB107D9F721E0A8EBB1E0AC
:1000900001C01D92AB3BB207E1F70E94BA010C947C
:1000A0008A020C940000CF93DF9300D000D0CDB72C
:1000B000DEB769837A838B839C8382E08093C00060
:1000C00060E874E88EE190E029813A814B815C819F
:1000D0000E944E02215031093093C5002093C40084
:1000E00088E08093C10086E08093C2000F900F905B
:1000F0000F900F90DF91CF9108959091C00095FFE0
:10010000FCCF8093C6000895CF93DF93EC018991D3
:10011000811103C0DF91CF9108950E947D00F7CF38
:100120000E9484008DE00E947D008AE00C947D0096
:10013000CF93DF93EC0197FF06C08DE20E947D0014
:10014000D195C195D109C436D105BCF0CE0164E684
:1001500070E00E943A0280E3860F0E947D002AE050
:1001600030E0CE01B9010E943A02CB01B9010E94F0
:100170003A02805D0E947D0003C0CA30D1057CF741
:10018000CE016AE070E00E943A02805DDF91CF917B
:100190000C947D0084B18C6284B981E58CBD8AB1F8
:1001A0008C6F8AB987B1836087B90895DC0180E0DC
:1001B0009D919EBD0DB407FEFDCF2A982A9A9BB152
:1001C0009C6F9BB998B1936098B9EFEFE80FE73057
:1001D00028F4F0E0E457FD4F0C9470025A98EFE9D0
:1001E000FFE03197F1F700C000008F5F883001F722
:1001F00008955B98F4CF5C98F2CF5D98F0CF5E984D
:10020000EECF5F98ECCF4098EACF4198E8CF181630
:1002100074F4883774F46FE00E942E0221E030E01D
:1002200001C0220F8A95EAF78FEF820F089580E0D0
:1002300008958FEF089580E480937C0087E8809391
:100240007A0052985A9A82E08093690081E08DBBCF
:100250007894089580917A00806480937A008091E8
:100260007A0086FDFCCF80917800909179008C32E5
:1002700021E0920730F08D3B924030F082E090E038
:10028000089590E080E0089581E090E008958091E5
:10029000B801882319F01092B80181E008958F9376
:1002A00081E08093B8018F91189588E78093BA0117
:1002B0008093B90180E091E00E9484008DE191E09B
:1002C0000C94840086B56AE00E942E02911104C04D
:1002D0008CE391E00C9484008091B9018F5087FDEC
:1002E00010C08093B90187E591E00E94840080915D
:1002F000B901082E000C990B0E94980084E591E04A
:10030000E9CF1092B901EFCF06B400FC04C08AE730
:1003100091E00C9484008091BA018F5087FD10C049
:100320008093BA018FE891E00E9484008091BA0125
:10033000082E000C990B0E94980084E591E0E9CF0B
:100340001092BA01EFCF8091B90118163CF4809158
:10035000BA01181634F082E090E0089581E090E050
:10036000089590E080E008958091BA010895809109
:10037000B9010895CDB7DEB728970FB6F894DEBF60
:100380000FBECDBF6FEC70E080E090E00E945300A4
:100390000E94CA0082E480937C0087E880937A0000
:1003A0000E94550185B5816085BDF12C10E000E00B
:1003B00086E0E82E5E0123E0A20EB11C80917A0057
:1003C000806480937A0080917A0086FDFCCFC09093
:1003D0007800D0907900C601885C910989359240F7
:1003E00010F1F1100DC00E94A301892BF1F40E94BD
:1003F00062010E94A3018C01892B69F50E9484018E
:100400000F5F1F4FFF24F3940739110570F0F1E9D6
:10041000CF1AF1E0DF0AFF24F39427ECC216D104CF
:1004200020F4F12C02C0F110EBCF1A821982F501F1
:100430002E2D11922A95E9F70E94B7010E9407011B
:1004400089830E94B4010E9407018887CE0101962A
:100450000E94D600B3CF10E000E0D2CF991B79E024
:1004600004C0991F961708F0961B881F7A95C9F744
:100470008095089597FB072E16F4009407D077FD1A
:1004800009D00E94760207FC05D03EF49095819534
:100490009F4F0895709561957F4F0895A1E21A2EA0
:1004A000AA1BBB1BFD010DC0AA1FBB1FEE1FFF1F18
:1004B000A217B307E407F50720F0A21BB30BE40B68
:1004C000F50B661F771F881F991F1A9469F76095AF
:1004D0007095809590959B01AC01BD01CF01089569
:1004E000EE0FFF1F0590F491E02D0994AA1BBB1B92
:1004F00051E107C0AA1FBB1FA617B70710F0A61B24
:10050000B70B881F991F5A95A9F780959095BC0144
:10051000CD010895F894FFCFF900FB00FD00FF0026
:06052000010103010501C9
:100526000D0A3D3D3D20504F4B45424154544C45EC
:10053600205354415254203D3D3D0D0A00596F75DC
:10054600722048503A20313230207C20456E656D4D
:10055600792048503A203132300D0A003E20446559
:10056600696E20416E677269666620766572666599
:10057600686C74210D0A003E2054726566666572C9
:1005860021203135205363686164656E2E204765EE
:10059600676E65722048503A20003E204765676EB8
:1005A6006572207665726665686C74210D0A003E78
:1005B600204765676E6572207472696666742120CD
:1005C6003135205363686164656E2E204465696E1B
:0805D600652048503A200000A6
:00000001FF
