:100000000C9434000C9478010C9451000C94510021
:100010000C9451000C9451000C9451000C9451001C
:100020000C9451000C9451000C9451000C9451000C
:100030000C9451000C9451000C9451000C945100FC
:100040000C9451000C9451000C9451000C945100EC
:100050000C9451000C9451000C9451000C945100DC
:100060000C9451000C94510011241FBECFEFD8E026
:10007000DEBFCDBF12E0A0E0B1E0E4E6F7E002C0F1
:1000800005900D92AA33B107D9F722E0AAE3B2E0B6
:1000900001C01D92AD33B207E1F70E9436020C9405
:1000A000A9030C94000080917A00806480937A0008
:1000B00080917A0086FDFCCF809178009091790044
:1000C0000895CF93DF9300D000D0CDB7DEB769831A
:1000D0007A838B839C8382E08093C00060E874E81D
:1000E0008EE190E029813A814B815C810E94B402CB
:1000F000215031093093C5002093C40088E08093DB
:10010000C10086E08093C2000F900F900F900F9077
:10011000DF91CF9108959091C00095FFFCCF80931F
:10012000C6000895CF93DF93EC018991811103C03C
:10013000DF91CF9108950E948B00F7CF0E9492002B
:100140008DE00E948B008AE00C948B00CF93DF93AC
:10015000EC0197FF06C08DE20E948B00D195C195FE
:10016000D109C83E83E0D80724F1CE0168EE73E0E0
:100170000E94A00280E3860F0E948B00CE0164E6FD
:1001800070E00E94A002CB016AE070E00E94A00231
:10019000805D0E948B002AE030E0CE01B9010E9410
:1001A000A002CB01B9010E94A002805D0E948B00D9
:1001B00006C0C436D10514F7CA30D10564F7CE01A4
:1001C0006AE070E00E94A002805DDF91CF910C9404
:1001D0008B0084B18D6284B981E58CBD8AB18C6F4E
:1001E0008AB987B1836087B90895DC0180E09BB14B
:1001F0009C6F9BB998B1936098B99D919EBD0DB4C9
:1002000007FEFDCF2898289A9BB19C6F9BB998B1A7
:10021000936098B9EFEFE80FE73028F4F0E0E55588
:10022000FC4F0C94D6025A98EFE3FFE13197F1F7B7
:1002300000C000008F5F8830D1F608955B98F4CF3E
:100240005C98F2CF5D98F0CF5E98EECF5F98ECCFE0
:100250004098EACF4198E8CF181694F4883794F480
:10026000082E000C990B0E966FE070E00E94A00221
:1002700081E090E001C0880F6A95EAF78150089507
:1002800080E008958FEF089580E480937C0087E8F4
:1002900080937A0052985A9A82E08093690081E0B4
:1002A0008DBB7894089580917A00806480937A0061
:1002B00080917A0086FDFCCF809178009091790042
:1002C0008C3221E0920730F08D3B924030F082E09A
:1002D00090E0089590E080E0089581E090E0089536
:1002E00080913A02882319F010923A0281E0089531
:1002F0008F9381E080933A028F9118950F931F930B
:10030000CF93DF93082F082E000C110BC0E01816B6
:1003100054F4C8010E966FE070E00E94A002C62F50
:10032000693009F4C8E08BE50E948B00D0E08EE2D2
:10033000DC1708F483E20E948B00DF5FD830B9F746
:1003400084E091E00E949200C8010E94A60087E02C
:1003500091E0DF91CF911F910F910C9492008CE06E
:1003600091E00E94920080913C020E947E0187E110
:1003700091E00E94920080913B020E947E0186E7FC
:1003800091E00C94920088E780933C0280933B02BA
:1003900086E791E00E94920084E291E00E94920040
:1003A00080E491E00E94920084E291E00E94920039
:1003B0008CE591E00E9492000C94AF010E945803DA
:1003C0006AE070E00E94A0021816190624F08BE77C
:1003D00091E00C94920080913B028F5087FD0DC0FC
:1003E00080933B028AE991E00E94920080913B0257
:1003F000811106C087EB91E0ECCF10923B02F2CF67
:1004000008950E94580380FD04C089ED91E00C948A
:10041000920080913C028F5087FD0DC080933C027A
:100420008EEE91E00E94920080913C02811106C004
:100430008DE092E0ECCF10923C02F2CF08958091D3
:100440003B0218163CF480913C02181634F082E00E
:1004500090E0089581E090E0089590E080E00895B4
:1004600080913C02089580913B020895CDB7DEB79C
:1004700028970FB6F894DEBF0FBECDBF60E875E2D7
:1004800080E090E00E9461000E94E90082E4809395
:100490007C0087E880937A000E9453000E945D03ED
:1004A0000E94C301F12CD12CC12C86E0E82E5E0104
:1004B00023E0A20EB11C0E9453008C01885C9109BC
:1004C0008935924010F1F11010C00E941F02892B53
:1004D000F1F40E94DE010E941F02892B11F40E9498
:1004E00001020E94AF01D12CC12CFFEFCF1ADF0A0D
:1004F00027E9C216D10408F101591140FF24F394F1
:10050000073C110520F4F12C02C0F110EECF1A8245
:100510001982F5012E2D11922A95E9F70E943302D6
:100520000E942C0189830E9430020E942C0188873E
:10053000CE0101960E94F500BECFFF24F394E7CFD1
:1005400097FB072E16F4009407D077FD09D00E9480
:10055000DC0207FC05D03EF4909581959F4F0895ED
:10056000709561957F4F0895A1E21A2EAA1BBB1BBF
:10057000FD010DC0AA1FBB1FEE1FFF1FA217B3076F
:10058000E407F50720F0A21BB30BE40BF50B661F85
:10059000771F881F991F1A9469F760957095809549
:1005A00090959B01AC01BD01CF010895EE0FFF1F97
:1005B0000590F491E02D0994AA1BBB1B51E107C0E3
:1005C000AA1FBB1FA617B70710F0A61BB70B881FE3
:1005D000991F5A95A9F780959095BC01CD01089572
:1005E000CF92DF92EF92FF92CF93DF93CDB7DEB73A
:1005F0002A970FB6F894DEBF0FBECDBF89879A87C2
:10060000A985BA852D913D914D915C9129833A83BD
:100610004B835C83232B242B252B41F424E239EDDF
:100620004BE557E029833A834B835C8369817A8168
:100630008B819C812DE133EF41E050E00E94680303
:1006400069017A01A7EAB1E49B01AC010E9487032A
:1006500069837A838B839C83ACEEB4EFA701960108
:100660000E9495039B01AC0189819A81AB81BC8179
:10067000820F931FA41FB51FB7FF03C00197A109E5
:10068000B048E985FA8580839183A283B3839F77FD
:100690002A960FB6F894DEBF0FBECDBFDF91CF9183
:1006A000FF90EF90DF90CF9008950E94F0020895A0
:1006B00080E091E00E94F0020895B0E0A0E0809315
:1006C000000190930101A0930201B09303010895EA
:1006D000052E97FB1EF400940E947F0357FD07D060
:1006E0000E94B40207FC03D04EF40C947F03509593
:1006F0004095309521953F4F4F4F5F4F089590950E
:100700008095709561957F4F8F4F9F4F08950E9400
:100710009A03A59F900DB49F900DA49F800D911DED
:1007200011240895B7FF0C9487030E948703821B4E
:10073000930B0895A29FB001B39FC001A39F700DBA
:10074000811D1124911DB29F700D811D1124911DD9
:100750000895F894FFCF1E012001220124012601F3
:0407600028012A0141
:10076400010000005D20002F31323000202044754C
:10077400202020202020000D0A20204765676E6578
:10078400722020002B3D3D3D3D3D3D3D3D3D3D3DE9
:100794003D3D3D3D3D3D3D3D3D3D3D3D2B0D0A0037
:1007A4007C202050204F204B2045204220412054C3
:1007B4002054204C204520207C0D0A004A6F797378
:1007C4007469636B206B697070656E203D20416EA7
:1007D4006772696666210D0A0D0A003E2044656948
:1007E4006E20416E6772696666206765687420646E
:1007F400616E6562656E210D0A003E20566F6C6C59
:1008040074726566666572212031352053636861B0
:1008140064656E210D0A000D0A2A2A2A20534945CF
:100824004721204765676E65722062657369656755
:100834007421202A2A2A0D0A003E204765676E6526
:1008440072207665726665686C74210D0A003E201C
:100854004765676E6572207472696666742120311B
:1008640035205363686164656E210D0A000D0A2A00
:100874002A2A204E49454445524C414745212044AB
:100884007520777572646573742062657369656732
:0A0894007421202A2A2A0D0A000010
:00000001FF
